S010000054434E6F726D616C2E7372656314
S113000045C0000060C000005EC000005CC000008D
S11300105AC0000058C0000056C0000054C0000080
S113002052C0000050C000004EC000004CC0000090
S11300304AC0000048C0000046C0000044C00000A0
S113004097C0000040C000003EC000003CC000005B
S11300503AC0000038C0000036C0000034C00000C0
S113006032C0000030C000002EC000002CC00000D0
S11300702AC0000028C0000026C0000024C00000E0
S113008022C0000020C000001EC0000011241FBEBA
S1130090CFEFD0E1DEBFCDBF11E0A0E0B1E0E0E4FE
S11300A0F2E000E00BBF02C007900D92A231B1074D
S11300B0D9F721E0A2E1B1E001C01D92A631B20757
S11300C0E1F782D0BBC09CCF0F931F93CF93DF93F4
S11300D068EE73E08CD08B0164E670E088D0EB01AD
S11300E06AE070E084D020E030E03AC04EE045BBE6
S11300F0F801FF27E050FF4F40814BBBEFE9FFE0E1
S11301003197F1F700C000004DE045BBFE01FF2729
S1130110E050FF4F40814BBBEFE9FFE03197F1F72F
S113012000C000004BE045BBFB01FF27E050FF4F40
S113013040814BBBEFE9FFE03197F1F700C00000CD
S113014047E045BBFC01FF27E050FF4F40814BBB1C
S1130150EFE9FFE03197F1F700C000002F5F3F4F58
S11301602E3131051CF2DF91CF911F910F9108952B
S11301701F920F920FB60F9211248F939F9312BE6A
S1130180809114019091150101969093150180932B
S113019014018091140190911501843F910568F038
S11301A01092150110921401809112019091130183
S11301B0019690931301809312019F918F910F9058
S11301C00FBE0F901F9018959FEF9ABB8FE084BBD2
S11301D09BBB85BB84E083BF87B7816087BF12BEAA
S11301E0789480911201909113016EDFFACF97FBFE
S11301F0072E16F4009406D077FD08D00BD007FC28
S113020005D03EF4909581959F4F08957095619522
S11302107F4F0895AA1BBB1B51E107C0AA1FBB1F38
S1130220A617B70710F0A61BB70B881F991F5A957E
S1130230A9F780959095BC01CD010895F894FFCF5E
S11302403F065B4F666D7C077F67777C395E79710B
S1050250088020
S9030000FC
