S010000054434E6F6D616C322E7372656354
S113000045C0000060C000005EC000005CC000008D
S11300105AC0000058C0000056C0000054C0000080
S113002052C0000050C000004EC000004CC0000090
S11300304AC0000048C0000046C0000044C00000A0
S113004043C0000040C000003EC000003CC00000AF
S11300503AC0000038C0000036C0000034C00000C0
S113006032C0000030C000002EC000002CC00000D0
S11300702AC0000028C0000026C0000024C00000E0
S113008022C0000020C000001EC0000011241FBEBA
S1130090CFEFD0E1DEBFCDBF11E0A0E0B1E0E0E7FB
S11300A0F2E000E00BBF02C007900D92A231B1074D
S11300B0D9F721E0A2E1B1E001C01D92A631B20757
S11300C0E1F796D0D3C09CCF1F920F920FB60F9238
S11300D011242F938F939F9382EF82BF80911401F9
S11300E090911501019690931501809314018091CC
S11300F0140190911501883E9340C4F010921501AB
S11301001092140180911201909113010196909321
S11301101301809312018091120190911301803197
S1130120974224F010921301109212019F918F9123
S11301302F910F900FBE0F901F9018950F931F9340
S1130140CF93DF93992314F480E090E0803127E289
S1130150920714F08FE097E268EE73E060D08B01B1
S113016064E670E05CD0EB016AE070E058D020E017
S113017030E036C04EE045BBF801FF27E050FF4FAA
S113018040814BBBE6E6FEE03197F1F700004DE01D
S113019045BBFE01FF27E050FF4F40814BBBE6E625
S11301A0FEE03197F1F700004BE045BBFB01FF2770
S11301B0E050FF4F40814BBBE6E6FEE03197F1F79C
S11301C0000047E045BBFC01FF27E050FF4F4081A2
S11301D04BBBE6E6FEE03197F1F700002F5F3F4F9F
S11301E02E3131053CF2DF91CF911F910F9108958B
S11301F08FEF8ABB8FE084BB1BBA85BB87E083BFCC
S113020082EF82BF86B7816086BF87B7816087BF70
S11302107894809112019091130190DFFACF97FBAB
S1130220072E16F4009406D077FD08D00BD007FCF7
S113023005D03EF4909581959F4F089570956195F2
S11302407F4F0895AA1BBB1B51E107C0AA1FBB1F08
S1130250A617B70710F0A61BB70B881F991F5A954E
S1130260A9F780959095BC01CD010895F894FFCF2E
S11302703F065B4F666D7C077F67777C395E7971DB
S10502800880F0
S9030000FC
