S00C0000415F44312E7372656303
S113000045C0000058C0000056C0000054C00000A5
S113001052C0000050C000004EC000004CC00000A0
S11300204AC0000048C0000046C0000044C00000B0
S113003042C0000040C000003EC000003CC00000C0
S11300403AC0000038C0000036C0000034C00000D0
S113005032C0000030C000002EC000002CC00000E0
S11300602AC0000028C0000026C0000024C00000F0
S113007022C0000020C000001EC000001CC0000000
S11300801AC0000018C0000016C0000011241FBED2
S1130090CFEFD0E1DEBFCDBF11E0A0E0B1E0ECEEE8
S11300A0F1E000E00BBF02C007900D92A631B1074A
S11300B0D9F782D099C0A4CF8FEF87BB8FE080930C
S11300C064000895E5E6F0E0908194609083908167
S11300D09D7F908390819160908396EF9A95F1F73C
S11300E088BB86EF8A95F1F780818E7F808308959F
S11300F0E5E6F0E090819B7F908390819D7F9083E3
S113010090819160908396EF9A95F1F788BB86EF82
S11301108A95F1F780818E7F80830895D3DF86E608
S11301209EE00197F1F700000895CF93DF93EC016F
S113013002C0F4DF219688818111FBCFDF91CF913A
S1130140089590E4899F600D1124862F8068D0CF94
S1130150089581E0CDDF8CEC9CE10197F1F700C0BC
S11301600000089588E3C4DF8CEC9CE10197F1F76B
S113017000C0000088E3BCDF8CEC9CE10197F1F740
S113018000C0000088E3B4DF8CEC9CE10197F1F738
S113019000C000008EE0ACDF8CEC9CE10197F1F72D
S11301A000C0000086E0A4DF8CEC9CE10197F1F72D
S11301B000C00000CECF08957FDFD4DF60E080E090
S11301C0C0DF80E091E0B1DF61E080E0BADF8BE086
S11301D091E0ABDF2FEF8FE796E121508040904014
S10F01E0E1F700C00000F6CFF894FFCF58
S11301EC41546D656761203132380048656C6C6F21
S10901FC204C4344000006
S9030000FC
