:1000000045C0000053C0000051C000004FC00000B8
:100010004DC000004BC0000049C0000047C00000B8
:1000200045C000004CC0000041C000003FC00000BF
:100030003DC000003BC0000039C0000037C00000D8
:1000400035C0000033C0000031C000002FC00000E8
:100050002DC000002BC0000029C0000027C00000F8
:1000600025C0000023C0000021C000001FC0000008
:100070001DC000001BC0000019C0000017C0000018
:1000800015C0000013C0000011C0000011241FBEE5
:10009000CFEFD0E1DEBFCDBF21E0A0E0B1E001C0F5
:1000A0001D92A432B207E1F74BD0E0C0A9CF8CE09B
:1000B00085BD8CE783BD87B7806887BF08951F9291
:1000C0000F920FB60F9211240BB60F922F933F93FE
:1000D0004F938F939F93EF93FF93809123018F5FB3
:1000E0008093230180912301803110F0109223012D
:1000F00080E040E013C0E82FF0E0E55EFE4F208195
:1001000090912301921748F421E030E0082E02C0BC
:10011000220F331F0A94E2F7422B8F5F883058F387
:10012000409548BBFF91EF919F918F914F913F91E7
:100130002F910F900BBE0F900FBE0F901F90189530
:100140008FEF87BB88BB11BA82BBB1DF7894A0E088
:10015000B0E060911101709112016E5F7F4F70935A
:10016000120160931101C0B3C09590911001909558
:100170009C2380E045C0482F50E0292F30E0082E16
:1001800002C0359527950A94E2F720FF38C0FA019E
:10019000EE0FFF1FE050FF4F20813181FB01E21B7A
:1001A000F30BF39760F1FA0131969F012295329596
:1001B000307F3227207F3227F3FF02C0295F3F4F75
:1001C000359527953595279535952795211101C0AA
:1001D00021E0FA01ED5EFE4F2083FA01E55EFE4F5D
:1001E0002081211105C021E0FA01E55EFE4F208348
:1001F000440F551FFA01E050FF4F718360838F5FFA
:10020000883008F4B8CFC09310018FE39FE10197C5
:10021000F1F700C000001296A431B10508F499CF9F
:1002200021C0822F90E0FC01E55EFE4F4081FC0181
:10023000ED5EFE4F3081431738F4FC01E55EFE4F62
:1002400080818F5F80830CC0FC01E55EFE4F4081A2
:10025000341730F4FC01E55EFE4F808181508083CD
:100260002F5F01C020E02830E0F271CFF894FFCF7B
:00000001FF
