S00C0000466E64322E73726563CE
S113000045C0000058C0000056C0000054C00000A5
S113001052C0000050C000004EC000004CC00000A0
S11300204AC0000048C0000046C0000044C00000B0
S113003042C0000040C000003EC000003CC00000C0
S11300403AC0000038C0000036C0000034C00000D0
S113005032C0000030C000002EC000002CC00000E0
S11300602AC0000028C0000026C0000024C00000F0
S113007022C0000020C000001EC000001CC0000000
S11300801AC0000018C0000016C0000011241FBED2
S1130090CFEFD0E1DEBFCDBF11E0A0E0B1E0E6EEEE
S11300A0F1E000E00BBF02C007900D92AE30B10743
S11300B0D9F759D096C0A4CFCF93DF93CDB7DEB78D
S11300C028970FB6F894DEBF0FBECDBFFC0168EED3
S11300D073E060D0CB012AE030E0B9015BD09A83B1
S11300E08983CF0164E670E055D0CB01B90152D0C9
S11300F09C838B83CF01B9014DD0FC01CB01B901A5
S113010049D09E838D83F887EF8380E090E01FC001
S1130110A5E6B0E01C92FC01EE0FFF1F21E030E0E9
S11301202C0F3D1FE20FF31F0190F081E02DEC5FD7
S1130130FE4F208128BBFC01E050FF4F20812C930F
S1130140EFE3FFE13197F1F700C00000019684303E
S11301509105F4F228960FB6F894DEBF0FBECDBF1A
S1130160DF91CF9108958FEF87BB8093640001E006
S113017010E00BC0C801A0DF219602C0C0E0D0E0AF
S1130180C233D105BCF30F5F1F4F003187E218075C
S1130190ACF3EDCF97FB072E16F4009406D077FD51
S11301A008D00BD007FC05D03EF4909581959F4F65
S11301B00895709561957F4F0895AA1BBB1B51E16B
S11301C007C0AA1FBB1FA617B70710F0A61BB70BC3
S11301D0881F991F5A95A9F780959095BC01CD0168
S10901E00895F894FFCF1E
S11101E60E0D0B073F065B4F666D7D077F6FA6
S9030000FC
