:1000000045C0000060C000005EC000005CC0000091
:100010005AC0000058C0000056C0000054C0000084
:1000200052C0000050C000004EC000004CC0000094
:100030004AC0000048C0000046C0000076C0000072
:1000400043C0000040C000003EC000003CC00000B3
:100050003AC0000038C0000036C0000034C00000C4
:1000600032C0000030C000002EC000002CC00000D4
:100070002AC0000028C0000026C0000024C00000E4
:1000800022C0000020C000001EC0000011241FBEBE
:10009000CFEFD0E1DEBFCDBF11E0A0E0B1E0EEEAEE
:1000A000F2E000E00BBF02C007900D92A231B10751
:1000B000D9F721E0A2E1B1E001C01D92AA31B20757
:1000C000E1F764D0F2C09CCF1F920F920FB60F924F
:1000D00011248F939F93809118019091190101969B
:1000E0009093190180931801809118019091190142
:1000F000C897A4F01092190110921801809116016E
:100100009091170101969093170180931601843600
:10011000910524F010921701109216019F918F9172
:100120000F900FBE0F901F9018951F920F920FB651
:100130000F9211248F939F93809114019091150138
:100140000196909315018093140180911401909170
:1001500015014C97A4F01092150110921401809192
:100160001201909113010196909313018093120153
:100170008436910524F010921301109212019F9180
:100180008F910F900FBE0F901F9018958FEF8ABB25
:100190008FE084BB1BBA85BB87B3806187BB8FE6CA
:1001A00083BF12BE86E681BF86B7836086BF87B7EE
:1001B000836087BF789480911201909113016AE067
:1001C00070E04CD0AC0190E01DC02EE025BBFB01DF
:1001D000FF27E050FF4F20812BBBEFE9FFE0319775
:1001E000F1F700C000002DE025BBFA01FF27E05029
:1001F000FF4F20812BBBEFE9FFE03197F1F700C003
:1002000000009F5F953008F38091160190911701CF
:100210006AE070E023D0AC0190E01DC02BE025BB6C
:10022000FB01FF27E050FF4F20812BBBEFE9FFE0F0
:100230003197F1F700C0000027E025BBFA01FF2746
:10024000E050FF4F20812BBBEFE9FFE03197F1F742
:1002500000C000009F5F953008F3ADCF97FB072EDD
:1002600016F4009406D077FD08D00BD007FC05D01B
:100270003EF4909581959F4F0895709561957F4FBD
:100280000895AA1BBB1B51E107C0AA1FBB1FA617DD
:10029000B70710F0A61BB70B881F991F5A95A9F72F
:0E02A00080959095BC01CD010895F894FFCF94
:1002AE003F065B4F666D7C077F67777C395E7971A1
:0202BE000880B6
:00000001FF
