S00E00004143445F70742E737265630B
S113000045C0000053C0000051C000004FC00000B4
S11300104DC000004BC0000049C0000047C00000B4
S113002045C000004CC0000041C000003FC00000BB
S11300303DC000003BC0000039C0000037C00000D4
S113004035C0000033C0000031C000002FC00000E4
S11300502DC0000075C0000029C0000027C00000AA
S113006025C0000023C0000021C000001FC0000004
S11300701DC000001BC0000019C0000017C0000014
S113008015C0000013C0000011C0000011241FBEE1
S1130090CFEFD0E1DEBFCDBF21E0A0E0B1E001C0F1
S11300A01D92A331B207E1F76AD0BDC0A9CF8CE09D
S11300B085BD8CE283BD87B7806887BF08951F9292
S11300C00F920FB60F9211240BB60F922F933F93FA
S11300D04F938F939F93EF93FF93809112018F5FC0
S11300E08093120180911201803110F0109212015C
S11300F080E040E013C0E82FF0E0E65FFE4F20818F
S113010090911201921748F421E030E0082E02C0C9
S1130110220F331F0A94E2F7422B8F5F883058F383
S1130120409548BBFF91EF919F918F914F913F91E3
S11301302F910F900BBE0F900FBE0F901F9018952C
S11301401F920F920FB60F9211248F939F9384B135
S113015095B1909301018093000186B1806486B9C2
S11301609F918F910F900FBE0F901F90189580E470
S113017087B98FE886B986B1806486B908958FEF10
S113018087BB88BB11BA82BB92DFF1DF789420E091
S113019030E0809100019091010182959295907FC9
S11301A09827807F982796959695913108F090E14D
S11301B080E006C0E82FF0E0EE5FFE4F90838F5F93
S11301C08830C0F38FE39FE10197F1F700C000008E
S11301D02E5F3F4F24313105E0F221C0822F90E0A1
S11301E0FC01E65FFE4F4081FC01EE5FFE4F308173
S11301F0431738F4FC01E65FFE4F80818F5F8083F4
S11302000CC0FC01E65FFE4F4081341730F4FC0162
S1130210E65FFE4F8081815080832F5F01C020E024
S10D02202830E0F2B4CFF894FFCFC9
S9030000FC
