S00E00004B65797061642E73726563B8
S113000045C0000060C000005EC000005CC000008D
S11300105AC0000058C0000056C0000054C0000080
S113002052C0000050C000004EC000004CC0000090
S11300304AC0000048C0000046C0000044C00000A0
S113004042C0000040C000003EC000003CC00000B0
S11300503AC0000038C0000036C0000034C00000C0
S113006032C0000030C000002EC000002CC00000D0
S11300702AC0000028C0000026C0000024C00000E0
S113008022C0000020C000001EC0000011241FBEBA
S1130090CFEFD0E1DEBFCDBF11E0A0E0B1E0E8E8F2
S11300A0F2E000E00BBF02C007900D92A431B1074B
S11300B0D9F721E0A4E1B1E001C01D92A831B20753
S11300C0E1F7D8D0DFC09CCF8FEF87BB8FE0809360
S11300D064000895E5E6F0E090819160908390815A
S11300E09D7F908390819460908396EF9A95F1F729
S11300F088BB86EF8A95F1F780818B7F8083089592
S1130100E5E6F0E090819E7F908390819D7F9083CF
S113011090819460908396EF9A95F1F788BB86EF6F
S11301208A95F1F780818B7F80830895D3DF86E6FB
S11301309EE00197F1F70000089590E4899F600D17
S11301401124862F8068DCCF089581E0D9DF8CEC00
S11301509CE10197F1F700C00000089588E3D0DF27
S11301608CEC9CE10197F1F700C0000088E3C8DF44
S11301708CEC9CE10197F1F700C0000088E3C0DF3C
S11301808CEC9CE10197F1F700C000008EE0B8DF31
S11301908CEC9CE10197F1F700C0000086E0B0DF31
S11301A08CEC9CE10197F1F700C00000CECF0895DC
S11301B080EF81BB08950F931F93CF93DF9300E0EB
S11301C010E046C0F801E15FFE4F808182BB26EF5C
S11301D02A95F1F7C0E0D0E036C080B3FE01E45FB9
S11301E0FE4F9081892398132DC0F801EE0FFF1F55
S11301F0E00FF11FE050FF4FEC0FFD1F808196DFF1
S113020080911601909117010196909317018093A4
S113021016014097BCF010921701109216018091BC
S1130220140190911501019681709078992324F41A
S113023001978E6F9F6F019680931401909315011F
S113024060E07BDF2196C330D1053CF20F5F1F4F86
S1130250043011050CF4B6CF8FEF9FEB26E08150EC
S113026090402040E1F700C00000DF91CF911F9142
S11302700F91089529DF72DF9BDF60E080E05DDF8E
S10B02809ADFFECFF894FFCFD2
S11302883132333435363738392A302301020410F1
S1070298204080007E
S9030000FC
