:1000000045C0000058C0000056C0000054C00000A9
:1000100052C0000050C000004EC000004CC00000A4
:100020004AC0000048C0000046C0000044C00000B4
:1000300042C0000040C000003EC000003CC00000C4
:100040003AC0000038C0000036C0000034C00000D4
:1000500032C0000030C000002EC000002CC00000E4
:100060002AC0000028C0000026C0000024C00000F4
:1000700022C0000020C000001EC000001CC0000004
:100080001AC0000018C0000016C0000011241FBED6
:10009000CFEFD0E1DEBFCDBF11E0A0E0B1E0E4E101
:1000A000F3E000E00BBF02C007900D92A231B10750
:1000B000D9F7CBD02DC1A4CF8FEF87BB8FE0809332
:1000C00064000895E5E6F0E090819160908390816E
:1000D0009D7F908390819460908396EF9A95F1F73D
:1000E00088BB86EF8A95F1F780818B7F80830895A6
:1000F000E5E6F0E090819E7F908390819D7F9083E4
:1001000090819460908396EF9A95F1F788BB86EF83
:100110008A95F1F780818B7F80830895D3DF86E60F
:100120009EE00197F1F700000895CF93DF93EC0173
:1001300002C0F4DF219688818111FBCFDF91CF913E
:10014000089590E4899F600D1124862F8068D0CF98
:10015000089581E0CDDF8CEC9CE10197F1F700C0C0
:100160000000089588E3C4DF8CEC9CE10197F1F76F
:1001700000C0000088E3BCDF8CEC9CE10197F1F744
:1001800000C0000088E3B4DF8CEC9CE10197F1F73C
:1001900000C000008EE0ACDF8CEC9CE10197F1F731
:1001A00000C0000086E0A4DF8CEC9CE10197F1F731
:1001B00000C00000CECF089580EF81BB089580E19C
:1001C00082BB86EF8A95F1F7809927C0819927C075
:1001D000829927C080E282BB86EF8A95F1F78099E9
:1001E00022C0819922C0829922C080E482BB86EF1E
:1001F0008A95F1F780991DC081991DC082991DC013
:1002000080E882BB86EF8A95F1F7809918C08199C2
:1002100018C0829B18C083E2089581E3089582E3A9
:10022000089583E3089584E3089585E3089586E3BC
:10023000089587E3089588E3089589E308958AE29D
:10024000089580E3089580E00895CF93DF9300D070
:1002500000D01F92CDB7DEB72FDF84DFADDF60E0C7
:1002600080E06FDFFE01319685E0DF011D928A9507
:10027000E9F700E010E0A3DF8823E9F3833229F5F2
:10028000E1E0F0E0EC0FFD1FE00FF11F108260E0F5
:1002900071E0CE01019633D0892B61F45ADF60E022
:1002A00080E04FDF85E091E040DF8FEF8BBB00E027
:1002B00010E01BC04EDF60E080E043DF8DE091E0A6
:1002C00034DF1BBA00E010E010C0043011056CF4FC
:1002D0007801BFEFEB1AFB0AE1E0F0E0EC0FFD1F45
:1002E000E00FF11F80831ADF87012FEF8FEF98E077
:1002F000215080409040E1F700C00000BCCFFB01DE
:10030000DC018D91019080190110D9F3990B0895AA
:04031000F894FFCF8F
:1003140031313031007375636365737300666169ED
:020324006C006B
:00000001FF
