:1000000045C0000060C000005EC000005CC0000091
:100010005AC0000058C0000056C0000054C0000084
:1000200052C0000050C000004EC000004CC0000094
:100030004AC0000048C0000046C0000044C00000A4
:1000400042C0000040C000003FC000003CC00000B3
:100050003AC0000038C0000036C0000034C00000C4
:1000600032C0000030C000002EC000002CC00000D4
:100070002AC0000028C0000026C0000024C00000E4
:1000800022C0000020C000001EC0000011241FBEBE
:10009000CFEFD0E1DEBFCDBF11E0A0E0B1E0EEE4F4
:1000A000F1E000E00BBF02C007900D92A630B1074F
:1000B000D9F721E0A6E0B1E001C01D92A730B20758
:1000C000E1F72ED042C09CCF1F920F920FB60F9235
:1000D00011248F938CB1809306018F910F900FBEE6
:1000E0000F901F9018951BB888E98AB986E0809315
:1000F00095001092900087E089B97894089501C026
:100100008CB95D9BFDCF0895CF93DF93EC0102C0C6
:100110002196F5DF88818111FBCFDF91CF91089582
:10012000E2DF80E091E0F0DF80910601882319F0A2
:10013000E6DF109206012FEF83ED90E3215080401F
:0E0140009040E1F700C00000ECCFF894FFCF34
:06014E00546573740A0001
:00000001FF
