:1000000045C0000058C0000056C0000054C00000A9
:1000100052C0000050C000004EC000004CC00000A4
:100020004AC0000048C0000046C0000044C00000B4
:1000300042C0000040C000003EC000003CC00000C4
:100040003AC0000038C0000036C0000034C00000D4
:1000500032C0000030C000002EC000002CC00000E4
:100060002AC0000028C0000026C0000024C00000F4
:1000700022C0000020C000001EC000001CC0000004
:100080001AC0000018C0000016C0000011241FBED6
:10009000CFEFD0E1DEBFCDBF11E0A0E0B1E0EAE3F9
:1000A000F1E000E00BBF02C007900D92A031B10754
:1000B000D9F712D040C0A4CF5D9BFECF8CB9089574
:1000C000CF93DF93EC0102C02196F6DF8881811186
:1000D000FBCFDF91CF910895CF93DF93CDB7DEB7FC
:1000E0002F970FB6F894DEBF0FBECDBF8FE0E0E0D4
:1000F000F1E0DE01119601900D928A95E1F78EEF05
:1001000082B91BB88AB188618AB9E5E9F0E08081DB
:10011000866080831092900087E089B9CE010196B5
:10012000CFDF2FEF8FEF9CE2215080409040E1F72E
:0A01300000C00000F3CFF894FFCFE9
:10013A0048656C6C6F20576F726C64210D0A000061
:00000001FF
