:1000000045C0000058C0000056C0000054C00000A9
:1000100052C0000050C000004EC000004CC00000A4
:100020004AC0000048C0000046C0000044C00000B4
:1000300042C0000040C000003EC000003CC00000C4
:100040003AC0000038C0000036C0000034C00000D4
:1000500032C0000030C000002EC000002CC00000E4
:100060002AC0000028C0000026C0000024C00000F4
:1000700022C0000020C000001EC000001CC0000004
:100080001AC0000018C0000016C0000011241FBED6
:10009000CFEFD0E1DEBFCDBF11E0A0E0B1E0ECE8F2
:1000A000F1E000E00BBF02C007900D92A231B10752
:1000B000D9F721D069C0A4CF1BB888E18AB986E0FE
:1000C000809395001092900087E089B908955D9B18
:1000D000FECF8CB908955F9BFECF8CB10895CF936E
:1000E000DF93EC0102C02196F2DF88818111FBCF02
:1000F000DF91CF910895CF93DF93CDB7DEB76197AE
:100100000FB6F894DEBF0FBECDBFD6DF8FEF87BB33
:1001100081E1E0E0F1E0DE01119601900D928A9517
:10012000E1F7CE010196DBDFD6DF182FD0DF1133E8
:1001300019F481E088BBF8CF123319F482E088BB50
:10014000F3CF133319F483E088BBEECF143319F4E3
:1001500084E088BBE9CF153319F485E088BBE4CF90
:10016000163319F486E088BBDFCF173319F487E024
:1001700088BBDACF183319F488E088BBD5CF1933A0
:0C01800099F689E088BBD0CFF894FFCF3F
:10018C0048656C6C6F20776F726C642121200D0AAE
:02019C00000061
:00000001FF
