S01200004D4F5570726F6A6563742E737265632A
S113000045C0000060C000005EC000005CC000008D
S11300105AC0000058C0000056C0000054C0000080
S113002052C0000050C000004EC000004CC0000090
S11300304AC0000048C0000046C0000044C00000A0
S113004042C0000040C000003EC000003CC00000B0
S11300503AC0000038C0000036C0000034C00000C0
S113006032C0000030C000002EC000002CC00000D0
S11300702AC0000028C0000026C0000024C00000E0
S113008022C0000020C000001EC0000011241FBEBA
S1130090CFEFD0E1DEBFCDBF11E0A0E0B1E0EAEBED
S11300A0FBE000E00BBF02C007900D92A43BB10738
S11300B0D9F721E0A4EBB1E001C01D92A23CB20744
S11300C0E1F766D178C59CCF8FEF87BB8FE0809333
S11300D064000895E5E6F0E090819160908390815A
S11300E09D7F908390819460908396EF9A95F1F729
S11300F088BB86EF8A95F1F780818B7F8083089592
S1130100E5E6F0E090819E7F908390819D7F9083CF
S113011090819460908396EF9A95F1F788BB86EF6F
S11301208A95F1F780818B7F80830895D3DF86E6FB
S11301309EE00197F1F700000895CF93DF93EC015F
S113014002C0F4DF219688818111FBCFDF91CF912A
S1130150089590E4899F600D1124862F8068D0CF84
S1130160089581E0CDDF8CEC9CE10197F1F700C0AC
S11301700000089588E3C4DF8CEC9CE10197F1F75B
S113018000C0000088E3BCDF8CEC9CE10197F1F730
S113019000C0000088E3B4DF8CEC9CE10197F1F728
S11301A000C000008EE0ACDF8CEC9CE10197F1F71D
S11301B000C0000086E0A4DF8CEC9CE10197F1F71D
S11301C000C00000CECF089582B1816082B982B1AF
S11301D08D7F82B91092900087E089B91BB888E1BD
S11301E08AB986E08093950008955D9BFECF8CB913
S11301F008955F9BFECF8CB10895CF93DF93EC01FC
S113020002C02196F2DF88818111FBCFDF91CF916B
S11302100895FF920F931F93CF93DF93CDB7DEB76B
S11302202A970FB6F894DEBF0FBECDBFF82EFE019D
S113023031968AE0DF011D928A95E9F700E010E02B
S11302401DC073D16AE070E002D19C01E1E0F0E0EE
S1130250EC0FFD1FE80FF91F80818111F2CFE1E05F
S1130260F0E0EC0FFD1FE20FF31F81E08083F80143
S1130270E354FE4F205D20830F5F1F4F04301105B0
S113028004F31092C101FF2019F084E091E0B5DF7E
S11302902A960FB6F894DEBF0FBECDBFDF91CF9183
S11302A01F910F91FF900895EF92FF920F931F9368
S11302B0CF93DF93CDB7DEB7A0970FB6F894DEBF28
S11302C00FBECDBF7C0140E050E0A0E0B0E000E014
S11302D010E021C0F701E40FF51F6081FA01E35437
S11302E0FE4F9081691310C00F5F1F4F12C0421759
S11302F0530739F0F901E354FE4F9081691301C0AB
S113030011962F5F3F4F02C020E030E024303105CA
S113031074F34F5F5F4F44305105E4F2BF93AF93E2
S11303201F930F93FF92EF9282E291E09F938F933A
S1130330CE0101967C019F938F9305D1C7015DDFA8
S113034081E491E05ADF0FB6F894DEBF0FBECDBF53
S11303500430110581F480E391E04FDF02DF60E0B7
S113036080E0F7DE84E491E0E8DE81E052DF109281
S1130370B5011092B401A0960FB6F894DEBF0FBE7B
S1130380CDBFDF91CF911F910F91FF90EF90089512
S11303901BDF9ADEEFDE84E591E02FDF81E039DFB9
S11303A028DF8A32A9F481E034DF1092B50110927B
S11303B0B4011092B7011092B60182E791E01DDFFB
S11303C0D0DE60E080E0C5DE86E891E0B6DEE8CF0E
S11303D090ED980F9A3078F42091B6013091B701DE
S11303E0A9014F5F5F4F5093B7014093B601F901E4
S11303F0E854FE4F80838091B6019091B701049731
S113040079F61092BC0188EB91E04EDF1092B701AF
S11304101092B6018091B4019091B5010196909328
S1130420B5018093B4010A970CF4BACF82E991E044
S1130430E4DE97DE60E080E08CDE8EEA91E07DDE33
S113044081E0E7DE1092B5011092B401A9CF97FBC9
S1130450072E16F4009406D077FD08D00BD007FCC5
S113046005D03EF4909581959F4F089570956195C0
S11304707F4F0895AA1BBB1B51E107C0AA1FBB1FD6
S1130480A617B70710F0A61BB70B881F991F5A951C
S1130490A9F780959095BC01CD0108958F929F9204
S11304A0AF92BF92CF92DF92EF92FF92CF93DF93FE
S11304B0EC01688179818A819B81611571058105CF
S11304C0910521F464E279ED8BE597E02DE133EFBA
S11304D041E050E013D349015A019B01AC01A7EA62
S11304E0B1E428D36B017C01ACEEB4EFA501940117
S11304F02DD3DC01CB018C0D9D1DAE1DBF1DB7FF9F
S113050003C00197A109B04888839983AA83BB8358
S11305109F77DF91CF91FF90EF90DF90CF90BF90C6
S1130520AF909F908F900895B9CF80E091E0B6CFBF
S1130530A0E0B0E08093000190930101A093020138
S1130540B093030108950F931F93CF93DF93CDB717
S1130550DEB72E970FB6F894DEBF0FBECDBF0D8960
S11305601E8986E08C831A8309838FEF9FE79E831D
S11305708D83AE01475E5F4F6F89788DCE01019602
S113058010D0EF81F885E00FF11F10822E960FB680
S1130590F894DEBF0FBECDBFDF91CF911F910F91B5
S11305A008952F923F924F925F926F927F928F9213
S11305B09F92AF92BF92CF92DF92EF92FF920F93EE
S11305C01F93CF93DF93CDB7DEB72B970FB6F89475
S11305D0DEBF0FBECDBF6C017B018A01FC01178217
S11305E01682838181FFBFC1CE0101963C01F601D1
S11305F09381F70193FD859193FF81917F01882376
S113060009F4ADC1853239F493FD859193FF81914D
S11306107F01853221F4B60190E0D6D1E8CF912C48
S1130620212C312CFFE1F315D8F08B3279F038F41A
S1130630803279F08332A1F4232D20611DC08D32E4
S113064061F0803369F4232D216016C0832D82600C
S1130650382EE32DE4603E2E2AC0F32DF8601DC031
S113066037FC2DC020ED280F2A3040F08E32B9F42B
S113067036FC75C1232D2064322E19C036FE06C007
S11306808AE0989E200D1124922E11C0EAE02E9E3D
S1130690200D1124222EF32DF0623F2E08C08C363B
S11306A021F4832D8068382E02C0883641F4F70186
S11306B093FD859193FF81917F018111B3CF982F91
S11306C09F7D9554933028F40C5F1F4F9FE39983CB
S11306D00DC0833631F0833771F0833509F055C08E
S11306E020C0F801808189830E5F1F4F8824839482
S11306F0912C530112C02801F2E04F0E511CF80155
S1130700A080B18036FE03C0692D70E002C06FEF97
S11307107FEFC5014ED14C018201F32DFF773F2EAF
S113072015C0280122E0420E511CF801A080B180BE
S113073036FE03C0692D70E002C06FEF7FEFC50184
S11307402DD14C01F32DF0683F2E820133FC19C0EA
S1130750822D90E088169906A0F4B60180E290E01C
S113076033D12A94F5CFF50137FC859137FE819179
S11307705F01B60190E028D121102A9421E0821A69
S113078091088114910479F7E1C0843611F0893617
S113079039F5F80137FE07C0608171818281938148
S11307A00C5F1F4F08C060817181072E000C880BFD
S11307B0990B0E5F1F4FF32DFF763F2E97FF09C055
S11307C090958095709561957F4F8F4F9F4FF068FE
S11307D03F2E2AE030E0A30133D1882E861844C08E
S11307E0853731F4232D2F7EB22E2AE030E025C048
S11307F0932D997FB92E8F36C1F018F4883579F08E
S1130800AEC0803719F0883721F0A9C0E92FE06124
S1130810BE2EB4FE0DC0FB2DF460BF2E09C034FE05
S11308200AC0292F2660B22E06C028E030E005C099
S113083020E130E002C020E132E0F801B7FE07C059
S113084060817181828193810C5F1F4F06C060813A
S1130850718180E090E00E5F1F4FA301F1D0882EDC
S11308608618FB2DFF773F2E36FE0DC0232D2E7FDD
S1130870A22E891458F434FE0BC032FC09C0832D17
S11308808E7EA82E05C0B82CA32C03C0B82C01C0A2
S1130890B92CA4FE0FC0FE01E80DF11D8081803348
S11308A021F49A2D997EA92E09C0A2FE06C0B39404
S11308B0B39404C08A2D867809F0B394A3FC10C0C5
S11308C0A0FE06C0B21480F4280C922C9B180DC014
S11308D0B21458F4B60180E290E076D0B394F8CF25
S11308E0B21418F42B1802C0982C212CA4FE0FC0AB
S11308F0B60180E390E068D0A2FE16C0A1FC03C05C
S113090088E790E002C088E590E0B6010CC08A2D2B
S1130910867851F0A1FE02C08BE201C080E2A7FC00
S11309208DE2B60190E050D0891430F4B60180E332
S113093090E04AD09A94F8CF8A94F301E80DF11D1F
S11309408081B60190E040D08110F6CF222009F4D6
S11309504ECEB60180E290E037D02A94F7CFF6016C
S11309608681978102C08FEF9FEF2B960FB6F89484
S1130970DEBF0FBECDBFDF91CF911F910F91FF90CE
S1130980EF90DF90CF90BF90AF909F908F907F902B
S11309906F905F904F903F902F900895FC010590C9
S11309A0615070400110D8F7809590958E0F9F1F6D
S11309B00895FC016150704001900110D8F78095B2
S11309C090958E0F9F1F08950F931F93CF93DF93DE
S11309D0FB01238121FD03C08FEF9FEF2CC022FF79
S11309E016C046815781248135814217530744F448
S11309F0A081B1819D012F5F3F4F318320838C9370
S1130A00268137812F5F3F4F3783268314C08B01A4
S1130A10EC01FB010084F185E02D0995892BE1F6B9
S1130A20D80116968D919C911797019617969C93D1
S1130A308E931697CE01DF91CF911F910F91089558
S1130A40FA01AA27283051F1203181F1E8946F93FB
S1130A506E7F6E5F7F4F8F4F9F4FAF4FB1E03ED0A1
S1130A60B4E03CD0670F781F891F9A1FA11D680F3F
S1130A70791F8A1F911DA11D6A0F711D811D911D72
S1130A80A11D20D009F468943F912AE0269F1124E7
S1130A903019305D3193DEF6CF010895462F47704B
S1130AA0405D4193B3E00FD0C9F7F6CF462F4F70A6
S1130AB0405D4A3318F0495D31FD4052419302D004
S1130AC0A9F7EACFB4E0A6959795879577956795AA
S1130AD0BA95C9F700976105710508959B01AC01AA
S1130AE00A2E06945795479537952795BA95C9F7D1
S1130AF0620F731F841F951FA01D0895052E97FB79
S1130B0016F400940FD057FD05D024D007FC02D072
S1130B1046F408C050954095309521953F4F4F4F6E
S1130B205F4F089590958095709561957F4F8F4F95
S1130B309F4F089531D0A59F900DB49F900DA49F11
S1130B40800D911D11240895B7FFF4CFF3DF821BAC
S1130B50930B0895A1E21A2EAA1BBB1BFD010DC025
S1130B60AA1FBB1FEE1FFF1FA217B307E407F50759
S1130B7020F0A21BB30BE40BF50B661F771F881F35
S1130B80991F1A9469F760957095809590959B01CB
S1130B90AC01BD01CF010895A29FB001B39FC00174
S1130BA0A39F700D811D1124911DB29F700D811D95
S10D0BB01124911D0895F894FFCF5D
S1130BBA010000005B47616D655D204E6577204149
S1130BCA6E737765722047656E6572617465640D2C
S1130BDA0A002573202D3E202564532025644200F3
S1130BEA5B47616D655D20484F4D452052554E2146
S1130BFA210D0A004D697373696F6E20537563631F
S1130C0A657373005B47616D655D2042617365625C
S1130C1A616C6C2047616D65205374617274210D97
S1130C2A0A005B47616D655D2052657365742062D5
S1130C3A79202A0D0A0047616D652052657365742F
S1130C4A21005B47616D655D204641494C3A204D60
S1130C5A617820617474656D7074730D0A0046615D
S1070C6A696C0000AD
S9030000FC
